:060000000A128A11142906
:10000800F000030EF1000B1912200C1829208C188F
:100018003120710E8300F00E700E090019200313B1
:100028008312003081000B11080086100611731826
:100038001F28242808007608870006157310080072
:10004800770887008614731408000D308F00043079
:100058008E000C10F20A850A08008C100618362843
:0C00680006143928061C39280610080070
:100200008A010A140F3982073F3406345B344F34B5
:1002100066346D347D3407347F346F3477347C3406
:1002200039345E34793471341F212E213521422135
:1002300050215E21031383126B2173211C290317A4
:1002400083168801890103138316850186018701BE
:1002500003138312850186018701080003138316A7
:100260000F138F160F160F14080003138316811235
:1002700081110111811001100313831200308100DC
:100280000B11080003138312101390121016901113
:10029000901010140D308F0004308E000C100800E8
:1002A00003138316F4309200031383129214121472
:1002B00012179216121692151215080003138316C0
:1002C0000C148C14031383128B170B170C108C1047
:1002D0008B160B1108000F307205F400F030720518
:1002E000F500F50E080074080021F60075080021DD
:0402F000F70008000B
:04400E00C430FF3F7C
:00000001FF
